:100000000C945E000C9486000C9486000C94860080
:100010000C9486000C9486000C9486000C94D909EC
:100020000C9486000C9486000C9486000C94FE07B9
:100030000C9486000C9486000C9486000C94860028
:100040000C94A7070C9486000C9475070C944F072A
:100050000C9486000C9486000C9486000C94860008
:100060000C94BA080C948600005EBCE2613FDD830C
:10007000C29C7E20A3FD1F41009D23BE46DB65F888
:100080008C11AF32CA57E97400000000230026002B
:10009000290004040404040404040202020202020B
:1000A000030303030303010204081020408001023C
:1000B000040810200102040810205B0A11241FBE4E
:1000C000CFEFD8E0DEBFCDBF11E0A0E0B1E0EAEABB
:1000D000F0E202C005900D92AA34B107D9F723E0EF
:1000E000AAE4B1E001C01D92A535B207E1F710E026
:1000F000CEE5D0E004C02197FE010E94280FCD3547
:10010000D107C9F70E94640B0C9453100C940000A3
:10011000982F20913B0281E0213208F043C080916A
:1001200017028111FCCF80913A0232E0309317021E
:10013000909316029FEF9093150210921402209351
:100140001302AAE1B2E0E3EFF1E090E0291331C03D
:100150001092F2019091F201880F892B8093F201A5
:100160008091F101813049F51092F1018091F20105
:100170008093BB008091BC0083FDF8CF85EC809319
:10018000BC00809117028230E1F3809115028F3F0D
:10019000B1F0809115028032A1F080911502803378
:1001A00091F084E01092190210923B021092180212
:1001B00008953D9131939F5FC9CF85EEE0CF80E0F8
:1001C000F1CF82E0EFCF83E0EDCF08950895482F7F
:1001D000E62F282F30E0863009F459C000F583302F
:1001E000E1F1853009F44FC04830E0F14E3010F1B4
:1001F000443108F063C02E50310981E090E0A0E066
:10020000B0E004C0880F991FAA1FBB1F2A95D2F720
:1002100028B1EE2309F44FC0822B88B908958A30A3
:10022000C9F18B30D9F18930F9F6809180008F7750
:10023000809380002850310981E090E0A0E0B0E098
:1002400004C0880F991FAA1FBB1F2A95D2F7E1117E
:100250002EC025B1809582232CC09091B0009F7D47
:100260009093B00081E090E0A0E0B0E004C0880F7F
:10027000991FAA1FBB1F4A95D2F72BB1EE23A1F0FD
:10028000822B8BB9089594B59F7D94BDEBCF94B527
:100290009F77FBCF809180008F7DCACF8091B00087
:1002A0008F778093B000C6CF80958223EACF25B1A7
:1002B000822B85B9089580958223AFCF089510923F
:1002C000F0011092EF011092190210923B0210926D
:1002D000170281E0809316021092F101449A459A28
:1002E000E9EBF0E080818E7F808380818D7F808349
:1002F00088E48093B80085E48093BC0085EE90E0AC
:100300009093EE018093ED0186EE90E09093EC01E6
:100310008093EB0108958091EF019091F001891B8A
:10032000990B0895AF92BF92CF92DF92EF92FF9216
:100330000F931F93CF93DF936C017B018B01040F0D
:10034000151FEB015E01AE18BF08C017D10759F0A9
:100350006991D601ED91FC910190F081E02DC601EB
:100360000995892B79F7C501DF91CF911F910F91E5
:10037000FF90EF90DF90CF90BF90AF900895FC0179
:10038000538D448D252F30E0842F90E0821B930BFA
:10039000541710F0CF96089501970895FC01918DA0
:1003A000828D981761F0A28DAE0FBF2FB11D5D96A3
:1003B0008C91928D9F5F9F73928F90E008958FEF45
:1003C0009FEF0895FC01918D828D981731F0828DF9
:1003D000E80FF11D858D90E008958FEF9FEF089550
:1003E000FC01918D228D892F90E0805C9F4F821BB4
:1003F00091098F73992708958CE392E00E94F00190
:1004000021E0892B09F420E0822F089580E090E01C
:10041000892B29F00E94FC0181110C9400000895A1
:10042000FC01A48DA80FB92FB11DA35ABF4F2C9169
:10043000848D90E001968F739927848FA689B78960
:100440002C93A089B1898C91837080648C93938D57
:10045000848D981306C00288F389E02D80818F7DFA
:1004600080830895EF92FF920F931F93CF93DF93B2
:10047000EC0181E0888F9B8D8C8D98131AC0E889E0
:10048000F989808185FF15C09FB7F894EE89FF89AF
:100490006083E889F98980818370806480839FBF4D
:1004A00081E090E0DF91CF911F910F91FF90EF904D
:1004B0000895F62E0B8D10E00F5F1F4F0F7311275D
:1004C000E02E8C8D8E110CC00FB607FCFACFE88998
:1004D000F989808185FFF5CFCE010E941002F1CF0E
:1004E000EB8DEC0FFD2FF11DE35AFF4FF0829FB70C
:1004F000F8940B8FEA89FB8980818062CFCFCF93FC
:10050000DF93EC01888D8823B9F0AA89BB89E8893B
:10051000F9898C9185FD03C0808186FD0DC00FB6E1
:1005200007FCF7CF8C9185FFF2CF808185FFEDCF5F
:10053000CE010E941002E9CFDF91CF910895880F7C
:10054000991F880F991F05970197F1F708953FB7F5
:10055000F8948091900190919101A0919201B091B5
:10056000930126B5A89B05C02F3F19F00196A11D48
:10057000B11D3FBFBA2FA92F982F8827BC01CD01ED
:10058000620F711D811D911D42E0660F771F881F4C
:10059000991F4A95D1F708958F929F92AF92BF927B
:1005A000CF92DF92EF92FF926B017C010E94A70233
:1005B0004B015C010E94A702681979098A099B090D
:1005C000683E734081059105A8F381E0C81AD108FF
:1005D000E108F10828EE820E23E0921EA11CB11C56
:1005E000C114D104E104F10429F7FF90EF90DF90EA
:1005F000CF90BF90AF909F908F900895CF92DF9251
:10060000EF92FF92CF93DF93EC01603282E07807A4
:10061000CCF5653B710514F064EB70E0898128E846
:1006200030E0281B310987FD3395220F331F220F3D
:10063000331F6901330FEE08FF088A8128E532E095
:10064000281B310987FD3395220F331F220F331FDB
:10065000032E000C440B550B2C193D094E095F0964
:10066000DB0177FF02C0B0E0A0E00E94E30E24EBC4
:1006700030E040E050E00E94B90EC20ED31EE41EEE
:10068000F51EB601E881EC3070F5298188E890E02C
:10069000821B910927FD9395880F991F880F991F39
:1006A000681779077CF02A8188E592E0821B91091E
:1006B00027FD9395880F991F880F991F6817790751
:1006C0000CF4CB010297880F991F4FB7F8942E2F87
:1006D00030E0F901EE0FFF1FE20FF31FEB51FD4F6A
:1006E000928381834FBFDF91CF91FF90EF90DF9096
:1006F000CF900895FC0180818C3008F05CC027B158
:10070000AB014E50510981E090E0A0E0B0E004C0A0
:10071000880F991FAA1FBB1F4A95D2F7822B87B952
:100720008081282F30E0D901AA0FBB1FA20FB31F71
:10073000AB51BD4F962F9F736C91607C692B6C936E
:10074000118212822CE0622F0E941C0F829FB00146
:10075000112430E020E0AB01420F531FDA01AA0F51
:10076000BB1FA40FB51FAB51BD4F9C9196FD16C08A
:100770002F5F3F4F2C30310571F781110FC0109260
:10078000800082E0809381001092850010928400A6
:10079000B19A80916F00826080936F00A0818A2F50
:1007A00090E0DC01AA0FBB1FA80FB91FAB51BD4FD2
:1007B0008C9180648C9380810895CF93DF93EC01BA
:1007C0008B818823A1F0888191E090931802809317
:1007D0003A021092190210923B0281E00E948800B6
:1007E00091E0811190E0892FDF91CF9108950E94CF
:1007F0005F0181E08B83CE010E94DD03982F811180
:10080000E2CFF1CFDC0180E0615090F09D9198271C
:10081000E92FEF70F0E0E859FF4F2491E92FE295BE
:10082000EF70F0E0E858FF4FE491822F8E27ECCF75
:1008300008950F931F93CF93DF93FC011081C18123
:10084000D281F8948981812B89838A81012F009537
:1008500080238A8383E090E00E949F028981802325
:1008600089838AE090E00E949F02C881789485E3A2
:1008700090E00E949F02C12381E009F480E0DF91B3
:10088000CF911F910F9108951F93CF93DF93FC0198
:100890001081C181D281912F909560FF16C0F8948C
:1008A0008A8189238A838981812B89838AE090E0E8
:1008B0000E949F028A81182B1A83789487E390E024
:1008C000DF91CF911F910C949F02F8948A81892324
:1008D0008A838981812B898381E490E00E949F0231
:1008E0008A81182B1A83789485E090E0E9CFDF9213
:1008F000EF92FF920F931F93CF93DF93EC01D62ECD
:10090000E42E08E010E0FF24F39461E08D2D8F21A8
:1009100009F460E0CE010E944404FF0C015011096B
:10092000A1F7E11010C0F894E981FA8191818881E2
:10093000809589238183E981FA81928188818095DC
:10094000892382837894DF91CF911F910F91FF903B
:10095000EF90DF900895EF92FF920F931F93CF9344
:10096000DF938C017B0140E065E50E947704E7019D
:1009700088E0E80EF11C699140E0C8010E9477040C
:10098000CE15DF05C1F7DF91CF911F910F91FF9039
:10099000EF900895FF920F931F93CF93DF93FC0185
:1009A0001081C181D281F8948981012F0095802323
:1009B000898378948DE7F82EFA94FF2061F182E024
:1009C00090E00E949F0288818123B1F3F8948A818C
:1009D00080238A838981812B8983789480EE91E0BA
:1009E0000E949F02F89489818023898386E490E0A5
:1009F0000E949F0288811823C1E009F0C0E078942A
:100A00008AE991E00E949F028C2FDF91CF911F9184
:100A10000F91FF900895C0E0F7CF6F927F928F9271
:100A20009F92AF92BF92CF92DF92EF92FF920F937D
:100A30001F93CF93DF938C01EB018091350390914D
:100A400036030E94CA04882309F43FC0B80180918C
:100A50003503909136030E94AB0440E06EEB809129
:100A60003503909136030E9477047E016E0189E080
:100A7000C80ED11C8E01A0903503B090360388E0DB
:100A8000882E912C712C66246394C5010E94190450
:100A900081117628660CE1E08E1A9108B1F7F80111
:100AA00071928F01CE16DF0631F780913503909158
:100AB00036030E94CA04813041F4F70181917F011D
:100AC000811105C0E017F107C1F790E008C068E0A8
:100AD000CE010E94020491E028852813F6CF892FC9
:100AE000DF91CF911F910F91FF90EF90DF90CF900A
:100AF000BF90AF909F908F907F906F90089585EDFD
:100B00008093BC008091BC0084FDFCCF1092170242
:100B1000089520916B01260F3327331F21323105B1
:100B2000ECF420911702FC0190E080E0243069F0A1
:100B300082E00895A0916B012191AC01455B5E4F6D
:100B4000A40FB52FB11D2C930196861798F38091B1
:100B50006B01680F60936B0180E0089581E0089558
:100B60000895E091F0018091EF01E81730F4F0E092
:100B7000EC56FE4F808190E008958FEF9FEF08952F
:100B80009091F0018091EF012FEF3FEF981748F41B
:100B9000E92FF0E0EC56FE4F208130E09F5F90930C
:100BA000F001C9010895CF92DF92EF92FF920F9367
:100BB0001F93CF93DF937C01CB018A012091180210
:100BC000222389F0EB016B01C40ED51ECC15DD0587
:100BD00069F06991D701ED91FC910190F081E02DD0
:100BE000C7010995F3CF642F0E948905C801DF91E1
:100BF000CF911F910F91FF90EF90DF90CF900895CC
:100C0000CF93DF931F92CDB7DEB76983209118028F
:100C10002223F9F020913B02203258F021E030E00D
:100C2000FC013383228390E080E00F90DF91CF912D
:100C3000089580911902E82FF0E0E65EFD4F99815A
:100C400090838F5F8093190280933B0281E090E054
:100C5000ECCF61E0CE0101960E948905F7CF90E0CC
:100C600080E00895382F8830A8F481E090E0A0E07B
:100C7000B0E004C0880F991FAA1FBB1F3A95D2F796
:100C8000662321F02BB1822B8BB908952BB180956F
:100C90008223FACF8E30C0F48850990BAC0181E0EA
:100CA00090E0A0E0B0E004C0880F991FAA1FBB1F0E
:100CB0004A95D2F7662321F025B1822B85B9089594
:100CC00025B180958223FACF843198F48E50990B08
:100CD000AC0181E090E0A0E0B0E004C0880F991F73
:100CE000AA1FBB1F4A95D2F7662321F028B1822B99
:100CF00088B9089528B180958223FACF5F926F92C8
:100D00007F928F929F92AF92BF92CF92DF92EF929B
:100D1000FF920F931F93CF93DF937C01862EE09178
:100D20003503F091360313861586148612861186D4
:100D3000108617821682158214821382712C662403
:100D400063946C0188E0C80ED11CC0913503D0912A
:100D500036039D849920A9F01B861D861C86912C44
:100D6000892DDF91CF911F910F91FF90EF90DF9030
:100D7000CF90BF90AF909F908F907F906F905F903B
:100D80000895CE010E94CA04811104C01B861D86ED
:100D90001C86E6CF40E060EFCE010E94770401E0C0
:100DA000A12C512C11E0CE010E941904B82ECE01C5
:100DB0000E94190491E0B91219C08130A1F51134D3
:100DC00058F25B86511001C06D868B81882321F219
:100DD0002396F70189918193EC15FD05D9F78714C6
:100DE000C1F17394871408F0B0CFBACFEA2DF0E0C8
:100DF000B8120FC08B851817A0F4DE01AE0FBF1F0D
:100E000013968C91802379F4B12C193008F41C8747
:100E1000512EEC0FFD1F8381902F909589238383A2
:100E20000AC08113F1CFFE01EA0DF11D8381802BF1
:100E30008383BB24B3946B2DCE010E9444041F5FB7
:100E4000000F11F4A39401E0E7E0EA1508F0ABCF3E
:100E5000B6CF67E0C7010E940204F70197818913AA
:100E6000C0CF992493947CCFFC0101900020E9F736
:100E70003197AF01481B590BBC018CE392E00C94F5
:100E80009201CF93DF930E943407EC018CE291E052
:100E90000E9434078C0F9D1FDF91CF9108951F9200
:100EA0000F920FB60F9211242F933F934F935F939E
:100EB0006F937F938F939F93AF93BF93EF93FF9322
:100EC0008CE392E00E941002FF91EF91BF91AF91ED
:100ED0009F918F917F916F915F914F913F912F9152
:100EE0000F900FBE0F901F9018951F920F920FB684
:100EF0000F9211242F938F939F93EF93FF93E09181
:100F00004C02F0914D028081E0915202F091530227
:100F100082FD1BC09081809155028F5F8F7320915D
:100F20005602821741F0E0915502F0E0E45CFD4F7B
:100F3000958F80935502FF91EF919F918F912F9103
:100F40000F900FBE0F901F9018958081F4CF1F92C5
:100F50000F920FB60F9211248F939F93AF93BF936D
:100F60008091D9019091DA01A091DB01B091DC016F
:100F70000196A11DB11D8093D9019093DA01A09330
:100F8000DB01B093DC0180918F0193E0980F9D37D6
:100F9000F0F490938F018091900190919101A09134
:100FA0009201B09193010196A11DB11D8093900112
:100FB00090939101A0939201B0939301BF91AF914F
:100FC0009F918F910F900FBE0F901F9018958A5789
:100FD00080938F018091D9019091DA01A091DB017A
:100FE000B091DC010196A11DB11D8093D9019093B0
:100FF000DA01A093DB01B093DC01CDCF1F920F92F9
:101000000FB60F9211242F933F934F935F936F93DB
:101010007F938F939F93AF93BF93CF93DF93EF9380
:10102000FF9380918E01C0910903D0E087FF24C017
:10103000109285001092840080918E018F5F8093C2
:101040008E0180918E01082E000C990B8C179D0744
:1010500024F480918E018C30C4F1809184009091B1
:101060008500049680349C4908F47AC080918400FD
:1010700090918500049676C080918E01082E000C18
:10108000990B8C179D07C4F6E0918E018E2FEE0F01
:10109000990BFC01EE0FFF1FE80FF91FEB51FD4FFD
:1010A000808186FFC9CFE0918E018E2FEE0F990BC4
:1010B000FC01EE0FFF1FE80FF91FEB51FD4F808180
:1010C00060E08F730E94E700B7CF209184003091D9
:1010D0008500E0918E018E2FEE0F990BFC01EE0F33
:1010E000FF1FE80FF91FEB51FD4F81819281820FA5
:1010F000931F9093890080938800E0918E018E2F3A
:10110000EE0F990BFC01EE0FFF1FE80FF91FEB51DB
:10111000FD4F808186FF11C0E0918E018E2FEE0F72
:10112000990BFC01EE0FFF1FE80FF91FEB51FD4F6C
:10113000808161E08F730E94E700FF91EF91DF9162
:10114000CF91BF91AF919F918F917F916F915F915F
:101150004F913F912F910F900FBE0F901F901895B8
:1011600080E49CE990938900809388008FEF8093BE
:101170008E01E3CF1F920F920FB60F9211242F937F
:101180003F934F935F936F937F938F939F93AF930F
:10119000BF93EF93FF938091B900887F803609F465
:1011A0004AC0F0F5883209F4A7C018F5803109F477
:1011B0009BC0B8F4882309F4F9C0883009F494C0BE
:1011C000FF91EF91BF91AF919F918F917F916F911F
:1011D0005F914F913F912F910F900FBE0F901F90F5
:1011E0001895883109F488C0803251F78093150230
:1011F00014C0803409F49DC040F48033B9F38833BF
:10120000F9F68093150285ECB0C0803509F485C0ED
:10121000883509F496C0883499F60E947F05D0CFAE
:10122000883909F48CC038F5883729F050F48836AD
:1012300011F0803729F683E08093170210928D0118
:1012400057C0883809F47BC0803919F0803809F01C
:10125000B7CF80918D01803208F071C0E0918D018F
:1012600081E08E0F80938D018091BB00F0E0E35907
:10127000FE4F80833DC0803B39F0E0F4803A09F4B2
:1012800079C0883A09F09CCF84E0809317021092CD
:101290006C0110926B01E091ED01F091EE01099566
:1012A00080916B0181110FC081E080936B011092DE
:1012B0004B0109C0803C09F4A6CF883C09F4A3CFB8
:1012C000883B09F07DCFE0916C0181E08E0F809327
:1012D0006C01F0E0E55BFE4F80818093BB00909154
:1012E0006C0180916B0129C08091F2018093BB0059
:1012F00085EC8093BC0064CF90911402809113021E
:10130000981758F5E091140281E08E0F8093140233
:10131000F0E0ED50FE4F8081E9CFE091140281E0D2
:101320008E0F809314028091BB00F0E0ED50FE4FD1
:10133000808390911402809113029817C8F285E877
:10134000D8CFE091140281E08E0F80931402809137
:10135000BB00F0E0ED50FE4F8083809116028111BA
:101360005CCF81E08093F10184EA8093BC0010920D
:10137000170226CF85EC8093BC0010921702809153
:101380008D01803230F4E0918D01F0E0E359FE4FA1
:10139000108260918D0170E0E091EB01F091EC0121
:1013A0008DE691E0099510928D010ACF10921502F9
:1013B00034CF1F920F920FB60F9211242F933F93A9
:1013C0004F935F936F937F938F939F93AF93BF934D
:1013D000EF93FF9380914A018536C8F080911903FD
:1013E00090911A03181619062CF461E080911703E6
:1013F0000E9432068091190390911A0397FF05C04D
:1014000061E0809118030E94320610924A01809197
:10141000190390911A0320914A0130E097FD31C0E1
:101420008091190390911A031816190614F58091EA
:10143000190390911A032817390729F460E0809165
:1014400017030E94320680914A018F5F80934A0100
:10145000FF91EF91BF91AF919F918F917F916F918C
:101460005F914F913F912F910F900FBE0F901F9062
:1014700018958091190390911A039195819591097E
:10148000DACF8091190390911A03181619065CF4AB
:101490008091190390911A0328173907A1F660E08B
:1014A00080911803CECF8091190390911A039195E2
:1014B00081959109F1CF10923F0210923E0288EE81
:1014C00093E0A0E0B0E08093400290934102A093AB
:1014D0004202B09343022CE031E030933D0220936E
:1014E0003C0225EC30E0309349022093480224EC82
:1014F00030E030934B0220934A0220EC30E03093EE
:101500004D0220934C0221EC30E030934F022093A7
:101510004E0222EC30E0309351022093500226EC30
:1015200030E03093530220935202109255021092F1
:10153000560210925702109258021092DC0210923A
:10154000DB028093DD029093DE02A093DF02B09372
:10155000E0028EE191E09093DA028093D9025598EF
:101560005D98EBEAF0E0E491E0934303E7E9F0E013
:10157000E491F0E0EE0FFF1FE857FF4F8591949143
:10158000909345038093440310924E0310925003AE
:1015900010924F0310924D0310924C0310924B0384
:1015A00010924A0310924903109248031092470385
:1015B00010924603109242031092410310922D03A1
:1015C00083E493E0909336038093350310923303C2
:1015D0001092340310922C0389E080932F0381E052
:1015E0008093300380933103809332038AE58093A4
:1015F0002B0310922303109225031092240380E8FA
:1016000090E09093270380932603809109038C3008
:1016100008F052C091E0980F9093090380931E0345
:1016200090E0FC01EE0FFF1FE80FF91FEB51FD4F9B
:1016300088EB9BE092838183809109038C3008F0D2
:101640003FC091E0980F9093090380931B0390E0B3
:10165000FC01EE0FFF1FE80FF91FEB51FD4F88EB68
:101660009BE09283818310921A031092190381E008
:101670008093170380931803519A519A10920C0388
:1016800021E030E030930E0320930D0310920F03FE
:101690001092100310921103109212031092130370
:1016A00010921403109215031092160380930A03EC
:1016B00080930B03519A08958FEF80931E03BCCF44
:1016C0008FEF80931B03CFCFCF93DF93CDB7DEB7E0
:1016D000A9970FB6F894DEBF0FBECDBFF89482E88D
:1016E00080937A0083E084BD85BD80916E00816027
:1016F00080936E0011E0109380008BE08093810056
:101700001093B00084E08093B1001092C1007894EF
:1017100068EE73E080E090E00E94CC02E0914C0221
:10172000F0914D0282E08083E0914802F0914902FD
:101730001082E0914A02F0914B028FEC808310926C
:101740005402E0915002F091510206E00083E091D2
:101750004E02F0914F02808180618083E0914E02C1
:10176000F0914F02808188608083E0914E02F09179
:101770004F02808180688083E0914E02F0914F0299
:1017800080818F7D808368EE73E080E090E00E942E
:10179000CC020E945F018FE291E00E94410768EE57
:1017A00073E080E090E00E94CC020E945F018FE233
:1017B00091E00E9441070E945F011093180287E7A1
:1017C00080933A021092190210923B026EE189ED69
:1017D00092E00E94000681E00E94880085E08093EC
:1017E000C3010093C40164E670E080E090E00E94D1
:1017F000CC0207EBC02E01E0D02E02EA87E7B82E1C
:10180000AA24AA9495EE992E25EC722E1093180214
:10181000B0923A021092190210923B02602F89EDA9
:1018200092E00E94000681E00E9488001093180256
:101830001092190210923B02809117028111FCCF85
:101840001093170210931602A09215021092140220
:10185000109313021093F2018091F2018E6E809327
:10186000F2018091F101813029F51092F10180910E
:10187000F2018093BB008091BC0083FDF8CF709291
:10188000BC00809117028130E1F38091140292E054
:10189000823010F490911402A3EFB1E0E4E9F1E09A
:1018A00080E089130AC01092F0018093EF0181114A
:1018B00008C0FFCF9092BC00E4CF2D9121938F5FA1
:1018C000F0CF89ED92E00E94C005582E89ED92E09C
:1018D0000E94C005682E81E00E948800F52CE12C52
:1018E000C7018629F601819391936F010E5F0E3A2D
:1018F00009F08CCF8FE291E00E944107E090330322
:10190000F12CC701B3E0880F991FBA95E1F70E9447
:101910002E0F8093B4019093B5018C01D12CC12C72
:10192000CE14DF0454F46C2DC8010E947E06FFEF34
:10193000CF1ADF0A085F1F4FF3CFD12CC12CFFE76E
:10194000BF2EACE0AA2ECE14DF040CF0E1C0009153
:10195000B4011091B501C601E3E0880F991FEA9523
:10196000E1F7080F191FF8018081803109F470C078
:10197000BE016F5F7F4FC8010E940D05882309F4E7
:1019800067C08D818F3709F463C0BD8280913503B4
:10199000909136030E94CA04B8018091350390915A
:1019A00036030E94AB0440E06EE4809135039091D1
:1019B00036030E94770440E06B818091350390915B
:1019C00036030E94770440E06C818091350390914A
:1019D00036030E947704F8018081803141F040E0B5
:1019E0006D8180913503909136030E947704809138
:1019F00035039091360320913203222339F10E945E
:101A0000CA04882329F1809135039091360301158A
:101A1000110509F048C040E06CEC0E947704409149
:101A20002C0368E480913503909136030E9477047B
:101A300080912C0381113BC064E170E080E090E074
:101A40000E94CC0280913503909136030E94CA0413
:101A5000A0922F0380913303823008F455C010E028
:101A600080913303181708F04FC080912F038C30FA
:101A700009F44AC0612FCE0182960E947E068AA197
:101A8000803199F1BE016F5F7F4FCE0182960E9437
:101A90000D05882331F08D818F3349F110F58F3199
:101AA00079F180E025C0B8010E94AB04B8CF8091E5
:101AB0002D03882329F060E080912E030E94E70027
:101AC00064E170E080E090E00E94CC0280912D0300
:101AD000882309F4B7CF61E080912E030E94E700CC
:101AE000B1CF8F3579F08F37E1F68CE001C08AE015
:101AF00090912F03981710F480932F031F5FB0CF9E
:101B000089E0F6CF8BE0F4CFFFEFCF1ADF0A1BCFCF
:101B100068EE73E080E090E00E94CC028FE291E0FA
:101B20000E944107109225031092240342E3F42EF1
:101B300058E4E52E69EDC62E62E0D62E70E2A72E9F
:101B4000B12C9924939486E090E00E942E0F8C0192
:101B5000FC01E082D282C1821382B582A48290937A
:101B60002203809321030E945F01F8019382C80140
:101B70000E94DD0381110DC086E391E00E944107C0
:101B800068EC70E080E090E00E94CC02FA94F110E2
:101B9000DACF8FE291E00E944107529A68EE73E03B
:101BA00080E090E00E94CC026EE070E08EE193E075
:101BB0000E947A0368EE73E080E090E00E94CC021D
:101BC0006FE070E08BE193E00E947A0368EE73E0CF
:101BD00080E090E00E94CC028091B000807F826023
:101BE0008093B00082E08093B10081E38093B300E2
:101BF0008091B10087708093B601809170008260FF
:101C00008093700084E491E00E9441078AE0482EAE
:101C1000512C612C712C9AE5C92ED12C20E0E22E9A
:101C200020E0F22E30EDA32E37E0B32E99249394CA
:101C300068EE73E080E090E00E94CC028091E301C6
:101C400081110EC01092DD011092DE011092DF01B1
:101C50001092E001B092E201A092E1019092E301C2
:101C60008FB7F8944091D9015091DA016091DB016E
:101C70007091DC018FBF8091DD019091DE01A09118
:101C8000DF01B091E001481B590B6A0B7B0B80917F
:101C9000E1019091E201B0E0A0E0481759076A071E
:101CA0007B0708F441C02FB7F8948091D901909137
:101CB000DA01A091DB01B091DC012FBF8093DD013F
:101CC0009093DE01A093DF01B093E0012091000129
:101CD000309101012B3531050CF446C02A553109EC
:101CE0003093010120930001032E000C440B550B8F
:101CF00019A28E010F5D1F4FCA01B901A301920104
:101D00000E94EB0E605DF80162938F012115310591
:101D10004105510589F7309719F0CF010E9434072A
:101D20008CE291E00E9434070091000110910101C2
:101D3000B8018EE193E00E94FE02B8018BE193E0CE
:101D40000E94FE0264EF71E080E090E00E94CC020D
:101D5000E114F10409F46CCF0E94FC01882309F41A
:101D600067CF0E94000064CFC601821B930B9C01C9
:101D7000B7CF052E97FB1EF400940E94D00E57FD9E
:101D800007D00E94EB0E07FC03D04EF40C94D00E4B
:101D900050954095309521953F4F4F4F5F4F089597
:101DA00090958095709561957F4F8F4F9F4F0895C7
:101DB0000E940D0FA59F900DB49F900DA49F800DC4
:101DC000911D11240895B7FF0C94D80E0E94D80ECF
:101DD000821B930B0895A1E21A2EAA1BBB1BFD01C7
:101DE0000DC0AA1FBB1FEE1FFF1FA217B307E407FA
:101DF000F50720F0A21BB30BE40BF50B661F771F52
:101E0000881F991F1A9469F7609570958095909531
:101E10009B01AC01BD01CF010895A29FB001B39F0A
:101E2000C001A39F700D811D1124911DB29F700DE3
:101E3000811D1124911D0895991B79E004C0991FFB
:101E4000961708F0961B881F7A95C9F78095089514
:101E5000EE0FFF1F0590F491E02D09940F931F934F
:101E6000CF93DF938230910510F482E090E0E0910F
:101E70005303F091540330E020E0B0E0A0E030974D
:101E800099F42115310509F44AC0281B390B243077
:101E90003105D8F58A819B816115710589F1FB01B6
:101EA00093838283FE0111C040815181028113819D
:101EB00048175907E0F04817590799F4109761F04F
:101EC00012960C93129713961C933296CF01DF91C2
:101ED000CF911F910F9108950093530310935403D2
:101EE000F4CF2115310551F04217530738F0A901FD
:101EF000DB019A01BD01DF01F801C1CFEF01F9CF8C
:101F00009093540380935303CDCFFE01E20FF31F50
:101F1000819391932250310939832883D7CF20911F
:101F2000510330915203232B41F42091040130914D
:101F30000501309352032093510320910201309107
:101F400003012115310541F42DB73EB7409106013B
:101F500050910701241B350BE0915103F09152037E
:101F6000E217F307A0F42E1B3F0B2817390778F070
:101F7000AC014E5F5F4F2417350748F04E0F5F1FCF
:101F80005093520340935103819391939FCFF0E07C
:101F9000E0E09CCFCF93DF930097E9F0FC0132970C
:101FA00013821282A0915303B0915403ED0130E0EB
:101FB00020E01097A1F420813181820F931F20919E
:101FC0005103309152032817390709F061C0F0938B
:101FD0005203E0935103DF91CF910895EA01CE17A8
:101FE000DF07E8F54A815B819E0141155105B1F794
:101FF000E901FB83EA8349915991C40FD51FEC177E
:10200000FD0761F4808191810296840F951FE9019B
:1020100099838883828193819B838A83F0E0E0E0C7
:1020200012968D919C9113970097B9F52D913C9143
:102030001197CD010296820F931F20915103309189
:1020400052032817390739F6309751F51092540387
:1020500010925303B0935203A0935103BCCFD38388
:10206000C28340815181840F951FC817D90761F43D
:102070004E5F5F4F88819981480F591F518340837C
:102080008A819B81938382832115310509F0B0CF2A
:10209000F0935403E09353039ECFFD01DC01C0CFC6
:0A20A00013821282D7CFF894FFCF0D
:1020AA005A0000005503800000000000320292012D
:1020BA00BF017F02F001CE01E2010000000000062C
:1020CA00D3052F06B0058B01C005B1050D0A0053D3
:1020DA00746172743100414453204E4F542053545A
:0A20EA0041525400537461727400F7
:00000001FF
